{
  "contractName": "SimpleStorage",
  "abi": [
    {
      "inputs": [],
      "stateMutability": "nonpayable",
      "type": "constructor"
    },
    {
      "anonymous": false,
      "inputs": [
        {
          "indexed": false,
          "internalType": "uint256",
          "name": "id",
          "type": "uint256"
        },
        {
          "indexed": false,
          "internalType": "address",
          "name": "creator",
          "type": "address"
        },
        {
          "indexed": false,
          "internalType": "string",
          "name": "location",
          "type": "string"
        },
        {
          "indexed": false,
          "internalType": "string",
          "name": "state",
          "type": "string"
        },
        {
          "indexed": false,
          "internalType": "uint256",
          "name": "price",
          "type": "uint256"
        },
        {
          "indexed": false,
          "internalType": "bool",
          "name": "rented",
          "type": "bool"
        }
      ],
      "name": "placeCreated",
      "type": "event"
    },
    {
      "inputs": [
        {
          "internalType": "uint256",
          "name": "",
          "type": "uint256"
        }
      ],
      "name": "allPlaces",
      "outputs": [
        {
          "internalType": "uint256",
          "name": "id",
          "type": "uint256"
        },
        {
          "internalType": "address payable",
          "name": "creator",
          "type": "address"
        },
        {
          "internalType": "string",
          "name": "image",
          "type": "string"
        },
        {
          "internalType": "string",
          "name": "location",
          "type": "string"
        },
        {
          "internalType": "string",
          "name": "state",
          "type": "string"
        },
        {
          "internalType": "uint256",
          "name": "price",
          "type": "uint256"
        },
        {
          "internalType": "bool",
          "name": "rented",
          "type": "bool"
        },
        {
          "internalType": "address payable",
          "name": "rentMan",
          "type": "address"
        },
        {
          "internalType": "string",
          "name": "description",
          "type": "string"
        },
        {
          "internalType": "bool",
          "name": "paid",
          "type": "bool"
        }
      ],
      "stateMutability": "view",
      "type": "function",
      "constant": true
    },
    {
      "inputs": [],
      "name": "placeCount",
      "outputs": [
        {
          "internalType": "uint256",
          "name": "",
          "type": "uint256"
        }
      ],
      "stateMutability": "view",
      "type": "function",
      "constant": true
    },
    {
      "inputs": [
        {
          "internalType": "uint256",
          "name": "_id",
          "type": "uint256"
        }
      ],
      "name": "changeRent",
      "outputs": [],
      "stateMutability": "nonpayable",
      "type": "function"
    },
    {
      "inputs": [
        {
          "internalType": "uint256",
          "name": "_id",
          "type": "uint256"
        }
      ],
      "name": "rentAndPay",
      "outputs": [],
      "stateMutability": "payable",
      "type": "function",
      "payable": true
    },
    {
      "inputs": [
        {
          "internalType": "address payable",
          "name": "_creator",
          "type": "address"
        },
        {
          "internalType": "string",
          "name": "_image",
          "type": "string"
        },
        {
          "internalType": "string",
          "name": "_location",
          "type": "string"
        },
        {
          "internalType": "string",
          "name": "_state",
          "type": "string"
        },
        {
          "internalType": "uint256",
          "name": "_price",
          "type": "uint256"
        },
        {
          "internalType": "string",
          "name": "_description",
          "type": "string"
        }
      ],
      "name": "setPlace",
      "outputs": [],
      "stateMutability": "nonpayable",
      "type": "function"
    }
  ],
  "bytecode": "0x60806040526000805534801561001457600080fd5b50610ec4806100246000396000f3fe60806040526004361061004a5760003560e01c80637ae1dc171461004f5780638778658a14610078578063d20a279c146100a3578063dd7ef706146100e9578063fe3e31f514610112575b600080fd5b34801561005b57600080fd5b50610076600480360381019061007191906108ef565b61012e565b005b34801561008457600080fd5b5061008d61037a565b60405161009a9190610a8e565b60405180910390f35b3480156100af57600080fd5b506100ca60048036038101906100c591906109ec565b610380565b6040516100e09a99989796959493929190610aa9565b60405180910390f35b3480156100f557600080fd5b50610110600480360381019061010b91906109ec565b61064e565b005b61012c600480360381019061012791906109ec565b6106fe565b005b60008081548092919061014090610d65565b919050555060405180610140016040528060005481526020018773ffffffffffffffffffffffffffffffffffffffff1681526020018681526020018581526020018481526020018381526020016000151581526020018773ffffffffffffffffffffffffffffffffffffffff1681526020018281526020016000151581525060016000805481526020019081526020016000206000820151816000015560208201518160010160006101000a81548173ffffffffffffffffffffffffffffffffffffffff021916908373ffffffffffffffffffffffffffffffffffffffff16021790555060408201518160020190805190602001906102409291906107b2565b50606082015181600301908051906020019061025d9291906107b2565b50608082015181600401908051906020019061027a9291906107b2565b5060a0820151816005015560c08201518160060160006101000a81548160ff02191690831515021790555060e08201518160060160016101000a81548173ffffffffffffffffffffffffffffffffffffffff021916908373ffffffffffffffffffffffffffffffffffffffff1602179055506101008201518160070190805190602001906103099291906107b2565b506101208201518160080160006101000a81548160ff0219169083151502179055509050507f142832aae44582cfbca0a669273b0ee272c1b9c19117238918d418e868bfc2e160005487868686600060405161036a96959493929190610b61565b60405180910390a1505050505050565b60005481565b60016020528060005260406000206000915090508060000154908060010160009054906101000a900473ffffffffffffffffffffffffffffffffffffffff16908060020180546103cf90610d02565b80601f01602080910402602001604051908101604052809291908181526020018280546103fb90610d02565b80156104485780601f1061041d57610100808354040283529160200191610448565b820191906000526020600020905b81548152906001019060200180831161042b57829003601f168201915b50505050509080600301805461045d90610d02565b80601f016020809104026020016040519081016040528092919081815260200182805461048990610d02565b80156104d65780601f106104ab576101008083540402835291602001916104d6565b820191906000526020600020905b8154815290600101906020018083116104b957829003601f168201915b5050505050908060040180546104eb90610d02565b80601f016020809104026020016040519081016040528092919081815260200182805461051790610d02565b80156105645780601f1061053957610100808354040283529160200191610564565b820191906000526020600020905b81548152906001019060200180831161054757829003601f168201915b5050505050908060050154908060060160009054906101000a900460ff16908060060160019054906101000a900473ffffffffffffffffffffffffffffffffffffffff16908060070180546105b890610d02565b80601f01602080910402602001604051908101604052809291908181526020018280546105e490610d02565b80156106315780601f1061060657610100808354040283529160200191610631565b820191906000526020600020905b81548152906001019060200180831161061457829003601f168201915b5050505050908060080160009054906101000a900460ff1690508a565b6000339050806001600084815260200190815260200160002060060160016101000a81548173ffffffffffffffffffffffffffffffffffffffff021916908373ffffffffffffffffffffffffffffffffffffffff1602179055506001600083815260200190815260200160002060060160009054906101000a900460ff16156001600084815260200190815260200160002060060160006101000a81548160ff0219169083151502179055505050565b60006001600083815260200190815260200160002060010160009054906101000a900473ffffffffffffffffffffffffffffffffffffffff1690508073ffffffffffffffffffffffffffffffffffffffff166108fc349081150290604051600060405180830381858888f1935050505015801561077f573d6000803e3d6000fd5b50600180600084815260200190815260200160002060080160006101000a81548160ff0219169083151502179055505050565b8280546107be90610d02565b90600052602060002090601f0160209004810192826107e05760008555610827565b82601f106107f957805160ff1916838001178555610827565b82800160010185558215610827579182015b8281111561082657825182559160200191906001019061080b565b5b5090506108349190610838565b5090565b5b80821115610851576000816000905550600101610839565b5090565b600061086861086384610bf5565b610bd0565b90508281526020810184848401111561088457610883610e40565b5b61088f848285610cc0565b509392505050565b6000813590506108a681610e60565b92915050565b600082601f8301126108c1576108c0610e3b565b5b81356108d1848260208601610855565b91505092915050565b6000813590506108e981610e77565b92915050565b60008060008060008060c0878903121561090c5761090b610e4a565b5b600061091a89828a01610897565b965050602087013567ffffffffffffffff81111561093b5761093a610e45565b5b61094789828a016108ac565b955050604087013567ffffffffffffffff81111561096857610967610e45565b5b61097489828a016108ac565b945050606087013567ffffffffffffffff81111561099557610994610e45565b5b6109a189828a016108ac565b93505060806109b289828a016108da565b92505060a087013567ffffffffffffffff8111156109d3576109d2610e45565b5b6109df89828a016108ac565b9150509295509295509295565b600060208284031215610a0257610a01610e4a565b5b6000610a10848285016108da565b91505092915050565b610a2281610c8a565b82525050565b610a3181610c42565b82525050565b610a4081610c54565b82525050565b6000610a5182610c26565b610a5b8185610c31565b9350610a6b818560208601610ccf565b610a7481610e4f565b840191505092915050565b610a8881610c80565b82525050565b6000602082019050610aa36000830184610a7f565b92915050565b600061014082019050610abf600083018d610a7f565b610acc602083018c610a28565b8181036040830152610ade818b610a46565b90508181036060830152610af2818a610a46565b90508181036080830152610b068189610a46565b9050610b1560a0830188610a7f565b610b2260c0830187610a37565b610b2f60e0830186610a28565b818103610100830152610b428185610a46565b9050610b52610120830184610a37565b9b9a5050505050505050505050565b600060c082019050610b766000830189610a7f565b610b836020830188610a19565b8181036040830152610b958187610a46565b90508181036060830152610ba98186610a46565b9050610bb86080830185610a7f565b610bc560a0830184610a37565b979650505050505050565b6000610bda610beb565b9050610be68282610d34565b919050565b6000604051905090565b600067ffffffffffffffff821115610c1057610c0f610e0c565b5b610c1982610e4f565b9050602081019050919050565b600081519050919050565b600082825260208201905092915050565b6000610c4d82610c60565b9050919050565b60008115159050919050565b600073ffffffffffffffffffffffffffffffffffffffff82169050919050565b6000819050919050565b6000610c9582610c9c565b9050919050565b6000610ca782610cae565b9050919050565b6000610cb982610c60565b9050919050565b82818337600083830152505050565b60005b83811015610ced578082015181840152602081019050610cd2565b83811115610cfc576000848401525b50505050565b60006002820490506001821680610d1a57607f821691505b60208210811415610d2e57610d2d610ddd565b5b50919050565b610d3d82610e4f565b810181811067ffffffffffffffff82111715610d5c57610d5b610e0c565b5b80604052505050565b6000610d7082610c80565b91507fffffffffffffffffffffffffffffffffffffffffffffffffffffffffffffffff821415610da357610da2610dae565b5b600182019050919050565b7f4e487b7100000000000000000000000000000000000000000000000000000000600052601160045260246000fd5b7f4e487b7100000000000000000000000000000000000000000000000000000000600052602260045260246000fd5b7f4e487b7100000000000000000000000000000000000000000000000000000000600052604160045260246000fd5b600080fd5b600080fd5b600080fd5b600080fd5b6000601f19601f8301169050919050565b610e6981610c42565b8114610e7457600080fd5b50565b610e8081610c80565b8114610e8b57600080fd5b5056fea2646970667358221220e96c64309d3e41503990c8708bfa187ae235d91d6f6093f7bbf2436bf39bac4d64736f6c63430008070033",
  "immutableReferences": {},
  "source": "// SPDX-License-Identifier: MIT\npragma solidity >=0.4.21 <0.9.0;\n\ncontract SimpleStorage {\n    uint256 public placeCount = 0;\n\n    constructor() {}\n\n    struct Rent {\n        uint256 id;\n        address payable creator;\n        string image;\n        string location;\n        string state;\n        uint256 price;\n        bool rented;\n        address payable rentMan;\n        string description;\n        bool paid;\n    }\n\n    mapping(uint256 => Rent) public allPlaces;\n\n    event placeCreated(\n        uint256 id,\n        address creator,\n        string location,\n        string state,\n        uint256 price,\n        bool rented\n    );\n\n    function changeRent(uint256 _id) public {\n        address _owner = msg.sender;\n        allPlaces[_id].rentMan = payable(_owner);\n        allPlaces[_id].rented = !allPlaces[_id].rented;\n    }\n\n    function rentAndPay(uint256 _id) public payable {\n        address payable _seller = allPlaces[_id].creator;\n        // require(_id > 0 && _id < placeCount);\n        // require(msg.value >= allPlaces[_id].price);\n        // require(_seller != msg.sender);\n        payable(address(_seller)).transfer(msg.value);\n        allPlaces[_id].paid = true;\n    }\n\n    function setPlace(\n        address payable _creator,\n        string memory _image,\n        string memory _location,\n        string memory _state,\n        uint256 _price,\n        string memory _description\n    ) public {\n        placeCount++;\n        allPlaces[placeCount] = Rent(\n            placeCount,\n            _creator,\n            _image,\n            _location,\n            _state,\n            _price,\n            false,\n            _creator,\n            _description,\n            false\n        );\n        emit placeCreated(\n            placeCount,\n            _creator,\n            _location,\n            _state,\n            _price,\n            false\n        );\n    }\n}\n",
  "sourcePath": "C:\\Users\\mihai\\OneDrive\\Desktop\\ether-project\\contracts\\SimpleStorage.sol",
  "compiler": {
    "name": "solc",
    "version": "0.8.7+commit.e28d00a7.Emscripten.clang"
  },
  "schemaVersion": "3.4.3",
  "updatedAt": "2021-09-08T11:29:55.152Z",
  "networkType": "ethereum",
  "devdoc": {
    "kind": "dev",
    "methods": {},
    "version": 1
  },
  "userdoc": {
    "kind": "user",
    "methods": {},
    "version": 1
  }
}