{
  "contractName": "SimpleStorage",
  "abi": [
    {
      "inputs": [],
      "stateMutability": "nonpayable",
      "type": "constructor"
    },
    {
      "anonymous": false,
      "inputs": [
        {
          "indexed": false,
          "internalType": "uint256",
          "name": "id",
          "type": "uint256"
        },
        {
          "indexed": false,
          "internalType": "address",
          "name": "creator",
          "type": "address"
        },
        {
          "indexed": false,
          "internalType": "string",
          "name": "location",
          "type": "string"
        },
        {
          "indexed": false,
          "internalType": "string",
          "name": "state",
          "type": "string"
        },
        {
          "indexed": false,
          "internalType": "uint256",
          "name": "price",
          "type": "uint256"
        },
        {
          "indexed": false,
          "internalType": "bool",
          "name": "rented",
          "type": "bool"
        }
      ],
      "name": "placeCreated",
      "type": "event"
    },
    {
      "inputs": [
        {
          "internalType": "uint256",
          "name": "",
          "type": "uint256"
        }
      ],
      "name": "allPlaces",
      "outputs": [
        {
          "internalType": "uint256",
          "name": "id",
          "type": "uint256"
        },
        {
          "internalType": "address payable",
          "name": "creator",
          "type": "address"
        },
        {
          "internalType": "string",
          "name": "image",
          "type": "string"
        },
        {
          "internalType": "string",
          "name": "location",
          "type": "string"
        },
        {
          "internalType": "string",
          "name": "state",
          "type": "string"
        },
        {
          "internalType": "uint256",
          "name": "price",
          "type": "uint256"
        },
        {
          "internalType": "bool",
          "name": "rented",
          "type": "bool"
        },
        {
          "internalType": "address payable",
          "name": "rentMan",
          "type": "address"
        },
        {
          "internalType": "string",
          "name": "description",
          "type": "string"
        },
        {
          "internalType": "bool",
          "name": "paid",
          "type": "bool"
        },
        {
          "internalType": "bool",
          "name": "deletePlace",
          "type": "bool"
        }
      ],
      "stateMutability": "view",
      "type": "function",
      "constant": true
    },
    {
      "inputs": [],
      "name": "placeCount",
      "outputs": [
        {
          "internalType": "uint256",
          "name": "",
          "type": "uint256"
        }
      ],
      "stateMutability": "view",
      "type": "function",
      "constant": true
    },
    {
      "inputs": [
        {
          "internalType": "uint256",
          "name": "_id",
          "type": "uint256"
        }
      ],
      "name": "changeRent",
      "outputs": [],
      "stateMutability": "nonpayable",
      "type": "function"
    },
    {
      "inputs": [
        {
          "internalType": "uint256",
          "name": "_id",
          "type": "uint256"
        }
      ],
      "name": "deletePlace",
      "outputs": [],
      "stateMutability": "nonpayable",
      "type": "function"
    },
    {
      "inputs": [],
      "name": "resetAll",
      "outputs": [],
      "stateMutability": "nonpayable",
      "type": "function"
    },
    {
      "inputs": [
        {
          "internalType": "uint256",
          "name": "_id",
          "type": "uint256"
        }
      ],
      "name": "rentAndPay",
      "outputs": [],
      "stateMutability": "payable",
      "type": "function",
      "payable": true
    },
    {
      "inputs": [
        {
          "internalType": "uint256",
          "name": "_id",
          "type": "uint256"
        },
        {
          "internalType": "uint256",
          "name": "_price",
          "type": "uint256"
        },
        {
          "internalType": "string",
          "name": "_description",
          "type": "string"
        }
      ],
      "name": "changeValue",
      "outputs": [],
      "stateMutability": "nonpayable",
      "type": "function"
    },
    {
      "inputs": [
        {
          "internalType": "address payable",
          "name": "_creator",
          "type": "address"
        },
        {
          "internalType": "string",
          "name": "_image",
          "type": "string"
        },
        {
          "internalType": "string",
          "name": "_location",
          "type": "string"
        },
        {
          "internalType": "string",
          "name": "_state",
          "type": "string"
        },
        {
          "internalType": "uint256",
          "name": "_price",
          "type": "uint256"
        },
        {
          "internalType": "string",
          "name": "_description",
          "type": "string"
        }
      ],
      "name": "setPlace",
      "outputs": [],
      "stateMutability": "nonpayable",
      "type": "function"
    }
  ],
  "bytecode": "0x60806040526000805534801561001457600080fd5b506111c9806100246000396000f3fe60806040526004361061007b5760003560e01c8063d20a279c1161004e578063d20a279c14610126578063dd7ef7061461016d578063e103aef514610196578063fe3e31f5146101ad5761007b565b806328cc1c3a1461008057806374b674bb146100a95780637ae1dc17146100d25780638778658a146100fb575b600080fd5b34801561008c57600080fd5b506100a760048036038101906100a29190610c73565b6101c9565b005b3480156100b557600080fd5b506100d060048036038101906100cb9190610ca0565b61021e565b005b3480156100de57600080fd5b506100f960048036038101906100f49190610b76565b610269565b005b34801561010757600080fd5b506101106104df565b60405161011d9190610d84565b60405180910390f35b34801561013257600080fd5b5061014d60048036038101906101489190610c73565b6104e5565b6040516101649b9a99989796959493929190610d9f565b60405180910390f35b34801561017957600080fd5b50610194600480360381019061018f9190610c73565b6107c6565b005b3480156101a257600080fd5b506101ab610876565b005b6101c760048036038101906101c29190610c73565b610985565b005b6001600082815260200190815260200160002060080160019054906101000a900460ff16156001600083815260200190815260200160002060080160016101000a81548160ff02191690831515021790555050565b80600160008581526020019081526020016000206007019080519060200190610248929190610a39565b50816001600085815260200190815260200160002060050181905550505050565b60008081548092919061027b9061106a565b919050555060405180610160016040528060005481526020018773ffffffffffffffffffffffffffffffffffffffff1681526020018681526020018581526020018481526020018381526020016000151581526020018773ffffffffffffffffffffffffffffffffffffffff1681526020018281526020016000151581526020016000151581525060016000805481526020019081526020016000206000820151816000015560208201518160010160006101000a81548173ffffffffffffffffffffffffffffffffffffffff021916908373ffffffffffffffffffffffffffffffffffffffff1602179055506040820151816002019080519060200190610384929190610a39565b5060608201518160030190805190602001906103a1929190610a39565b5060808201518160040190805190602001906103be929190610a39565b5060a0820151816005015560c08201518160060160006101000a81548160ff02191690831515021790555060e08201518160060160016101000a81548173ffffffffffffffffffffffffffffffffffffffff021916908373ffffffffffffffffffffffffffffffffffffffff16021790555061010082015181600701908051906020019061044d929190610a39565b506101208201518160080160006101000a81548160ff0219169083151502179055506101408201518160080160016101000a81548160ff0219169083151502179055509050507f142832aae44582cfbca0a669273b0ee272c1b9c19117238918d418e868bfc2e16000548786868660006040516104cf96959493929190610e66565b60405180910390a1505050505050565b60005481565b60016020528060005260406000206000915090508060000154908060010160009054906101000a900473ffffffffffffffffffffffffffffffffffffffff169080600201805461053490611007565b80601f016020809104026020016040519081016040528092919081815260200182805461056090611007565b80156105ad5780601f10610582576101008083540402835291602001916105ad565b820191906000526020600020905b81548152906001019060200180831161059057829003601f168201915b5050505050908060030180546105c290611007565b80601f01602080910402602001604051908101604052809291908181526020018280546105ee90611007565b801561063b5780601f106106105761010080835404028352916020019161063b565b820191906000526020600020905b81548152906001019060200180831161061e57829003601f168201915b50505050509080600401805461065090611007565b80601f016020809104026020016040519081016040528092919081815260200182805461067c90611007565b80156106c95780601f1061069e576101008083540402835291602001916106c9565b820191906000526020600020905b8154815290600101906020018083116106ac57829003601f168201915b5050505050908060050154908060060160009054906101000a900460ff16908060060160019054906101000a900473ffffffffffffffffffffffffffffffffffffffff169080600701805461071d90611007565b80601f016020809104026020016040519081016040528092919081815260200182805461074990611007565b80156107965780601f1061076b57610100808354040283529160200191610796565b820191906000526020600020905b81548152906001019060200180831161077957829003601f168201915b5050505050908060080160009054906101000a900460ff16908060080160019054906101000a900460ff1690508b565b6000339050806001600084815260200190815260200160002060060160016101000a81548173ffffffffffffffffffffffffffffffffffffffff021916908373ffffffffffffffffffffffffffffffffffffffff1602179055506001600083815260200190815260200160002060060160009054906101000a900460ff16156001600084815260200190815260200160002060060160006101000a81548160ff0219169083151502179055505050565b6000600190505b60005481116109825760006001600083815260200190815260200160002060060160006101000a81548160ff02191690831515021790555060006001600083815260200190815260200160002060080160006101000a81548160ff0219169083151502179055506001600082815260200190815260200160002060010160009054906101000a900473ffffffffffffffffffffffffffffffffffffffff166001600083815260200190815260200160002060060160016101000a81548173ffffffffffffffffffffffffffffffffffffffff021916908373ffffffffffffffffffffffffffffffffffffffff160217905550808061097a9061106a565b91505061087d565b50565b60006001600083815260200190815260200160002060010160009054906101000a900473ffffffffffffffffffffffffffffffffffffffff1690508073ffffffffffffffffffffffffffffffffffffffff166108fc349081150290604051600060405180830381858888f19350505050158015610a06573d6000803e3d6000fd5b50600180600084815260200190815260200160002060080160006101000a81548160ff0219169083151502179055505050565b828054610a4590611007565b90600052602060002090601f016020900481019282610a675760008555610aae565b82601f10610a8057805160ff1916838001178555610aae565b82800160010185558215610aae579182015b82811115610aad578251825591602001919060010190610a92565b5b509050610abb9190610abf565b5090565b5b80821115610ad8576000816000905550600101610ac0565b5090565b6000610aef610aea84610efa565b610ed5565b905082815260208101848484011115610b0b57610b0a611145565b5b610b16848285610fc5565b509392505050565b600081359050610b2d81611165565b92915050565b600082601f830112610b4857610b47611140565b5b8135610b58848260208601610adc565b91505092915050565b600081359050610b708161117c565b92915050565b60008060008060008060c08789031215610b9357610b9261114f565b5b6000610ba189828a01610b1e565b965050602087013567ffffffffffffffff811115610bc257610bc161114a565b5b610bce89828a01610b33565b955050604087013567ffffffffffffffff811115610bef57610bee61114a565b5b610bfb89828a01610b33565b945050606087013567ffffffffffffffff811115610c1c57610c1b61114a565b5b610c2889828a01610b33565b9350506080610c3989828a01610b61565b92505060a087013567ffffffffffffffff811115610c5a57610c5961114a565b5b610c6689828a01610b33565b9150509295509295509295565b600060208284031215610c8957610c8861114f565b5b6000610c9784828501610b61565b91505092915050565b600080600060608486031215610cb957610cb861114f565b5b6000610cc786828701610b61565b9350506020610cd886828701610b61565b925050604084013567ffffffffffffffff811115610cf957610cf861114a565b5b610d0586828701610b33565b9150509250925092565b610d1881610f8f565b82525050565b610d2781610f47565b82525050565b610d3681610f59565b82525050565b6000610d4782610f2b565b610d518185610f36565b9350610d61818560208601610fd4565b610d6a81611154565b840191505092915050565b610d7e81610f85565b82525050565b6000602082019050610d996000830184610d75565b92915050565b600061016082019050610db5600083018e610d75565b610dc2602083018d610d1e565b8181036040830152610dd4818c610d3c565b90508181036060830152610de8818b610d3c565b90508181036080830152610dfc818a610d3c565b9050610e0b60a0830189610d75565b610e1860c0830188610d2d565b610e2560e0830187610d1e565b818103610100830152610e388186610d3c565b9050610e48610120830185610d2d565b610e56610140830184610d2d565b9c9b505050505050505050505050565b600060c082019050610e7b6000830189610d75565b610e886020830188610d0f565b8181036040830152610e9a8187610d3c565b90508181036060830152610eae8186610d3c565b9050610ebd6080830185610d75565b610eca60a0830184610d2d565b979650505050505050565b6000610edf610ef0565b9050610eeb8282611039565b919050565b6000604051905090565b600067ffffffffffffffff821115610f1557610f14611111565b5b610f1e82611154565b9050602081019050919050565b600081519050919050565b600082825260208201905092915050565b6000610f5282610f65565b9050919050565b60008115159050919050565b600073ffffffffffffffffffffffffffffffffffffffff82169050919050565b6000819050919050565b6000610f9a82610fa1565b9050919050565b6000610fac82610fb3565b9050919050565b6000610fbe82610f65565b9050919050565b82818337600083830152505050565b60005b83811015610ff2578082015181840152602081019050610fd7565b83811115611001576000848401525b50505050565b6000600282049050600182168061101f57607f821691505b60208210811415611033576110326110e2565b5b50919050565b61104282611154565b810181811067ffffffffffffffff8211171561106157611060611111565b5b80604052505050565b600061107582610f85565b91507fffffffffffffffffffffffffffffffffffffffffffffffffffffffffffffffff8214156110a8576110a76110b3565b5b600182019050919050565b7f4e487b7100000000000000000000000000000000000000000000000000000000600052601160045260246000fd5b7f4e487b7100000000000000000000000000000000000000000000000000000000600052602260045260246000fd5b7f4e487b7100000000000000000000000000000000000000000000000000000000600052604160045260246000fd5b600080fd5b600080fd5b600080fd5b600080fd5b6000601f19601f8301169050919050565b61116e81610f47565b811461117957600080fd5b50565b61118581610f85565b811461119057600080fd5b5056fea26469706673582212207355f9ce46913ade486625a9bcf1049c417063f138e567eac3f2430bef5e2c0e64736f6c63430008070033",
  "immutableReferences": {},
  "source": "// SPDX-License-Identifier: MIT\npragma solidity >=0.4.21 <0.9.0;\n\ncontract SimpleStorage {\n    uint256 public placeCount = 0;\n\n    constructor() {}\n\n    struct Rent {\n        uint256 id;\n        address payable creator;\n        string image;\n        string location;\n        string state;\n        uint256 price;\n        bool rented;\n        address payable rentMan;\n        string description;\n        bool paid;\n        bool deletePlace;\n    }\n\n    mapping(uint256 => Rent) public allPlaces;\n\n    event placeCreated(\n        uint256 id,\n        address creator,\n        string location,\n        string state,\n        uint256 price,\n        bool rented\n    );\n\n    function changeRent(uint256 _id) public {\n        address _owner = msg.sender;\n        allPlaces[_id].rentMan = payable(_owner);\n        allPlaces[_id].rented = !allPlaces[_id].rented;\n    }\n\n    function deletePlace(uint256 _id) public {\n        allPlaces[_id].deletePlace = !allPlaces[_id].deletePlace;\n    }\n\n    function resetAll() public {\n        for (uint256 i = 1; i <= placeCount; i++) {\n            allPlaces[i].rented = false;\n            allPlaces[i].paid = false;\n            allPlaces[i].rentMan = allPlaces[i].creator;\n        }\n    }\n\n    function rentAndPay(uint256 _id) public payable {\n        address payable _seller = allPlaces[_id].creator;\n        // require(_id > 0 && _id < placeCount);\n        // require(msg.value >= allPlaces[_id].price);\n        // require(_seller != msg.sender);\n        payable(address(_seller)).transfer(msg.value);\n        allPlaces[_id].paid = true;\n    }\n\n    function changeValue(\n        uint256 _id,\n        uint256 _price,\n        string memory _description\n    ) public {\n        allPlaces[_id].description = _description;\n        allPlaces[_id].price = _price;\n    }\n\n    function setPlace(\n        address payable _creator,\n        string memory _image,\n        string memory _location,\n        string memory _state,\n        uint256 _price,\n        string memory _description\n    ) public {\n        placeCount++;\n        allPlaces[placeCount] = Rent(\n            placeCount,\n            _creator,\n            _image,\n            _location,\n            _state,\n            _price,\n            false,\n            _creator,\n            _description,\n            false,\n            false\n        );\n        emit placeCreated(\n            placeCount,\n            _creator,\n            _location,\n            _state,\n            _price,\n            false\n        );\n    }\n}\n",
  "sourcePath": "C:\\Users\\mihai\\OneDrive\\Desktop\\ETHERBOOK\\ether-project\\contracts\\SimpleStorage.sol",
  "compiler": {
    "name": "solc",
    "version": "0.8.7+commit.e28d00a7.Emscripten.clang"
  },
  "schemaVersion": "3.4.3",
  "updatedAt": "2021-09-14T17:45:51.629Z",
  "networkType": "ethereum",
  "devdoc": {
    "kind": "dev",
    "methods": {},
    "version": 1
  },
  "userdoc": {
    "kind": "user",
    "methods": {},
    "version": 1
  }
}