{
  "contractName": "SimpleStorage",
  "abi": [
    {
      "inputs": [],
      "stateMutability": "nonpayable",
      "type": "constructor"
    },
    {
      "anonymous": false,
      "inputs": [
        {
          "indexed": false,
          "internalType": "uint256",
          "name": "id",
          "type": "uint256"
        },
        {
          "indexed": false,
          "internalType": "address",
          "name": "creator",
          "type": "address"
        },
        {
          "indexed": false,
          "internalType": "string",
          "name": "location",
          "type": "string"
        },
        {
          "indexed": false,
          "internalType": "string",
          "name": "state",
          "type": "string"
        },
        {
          "indexed": false,
          "internalType": "uint256",
          "name": "price",
          "type": "uint256"
        },
        {
          "indexed": false,
          "internalType": "bool",
          "name": "rented",
          "type": "bool"
        }
      ],
      "name": "placeCreated",
      "type": "event"
    },
    {
      "inputs": [
        {
          "internalType": "uint256",
          "name": "",
          "type": "uint256"
        }
      ],
      "name": "allPlaces",
      "outputs": [
        {
          "internalType": "uint256",
          "name": "id",
          "type": "uint256"
        },
        {
          "internalType": "address payable",
          "name": "creator",
          "type": "address"
        },
        {
          "internalType": "string",
          "name": "image",
          "type": "string"
        },
        {
          "internalType": "string",
          "name": "location",
          "type": "string"
        },
        {
          "internalType": "string",
          "name": "state",
          "type": "string"
        },
        {
          "internalType": "uint256",
          "name": "price",
          "type": "uint256"
        },
        {
          "internalType": "bool",
          "name": "rented",
          "type": "bool"
        },
        {
          "internalType": "address payable",
          "name": "rentMan",
          "type": "address"
        },
        {
          "internalType": "string",
          "name": "description",
          "type": "string"
        },
        {
          "internalType": "bool",
          "name": "paid",
          "type": "bool"
        },
        {
          "internalType": "bool",
          "name": "deletePlace",
          "type": "bool"
        }
      ],
      "stateMutability": "view",
      "type": "function",
      "constant": true
    },
    {
      "inputs": [],
      "name": "placeCount",
      "outputs": [
        {
          "internalType": "uint256",
          "name": "",
          "type": "uint256"
        }
      ],
      "stateMutability": "view",
      "type": "function",
      "constant": true
    },
    {
      "inputs": [
        {
          "internalType": "uint256",
          "name": "_id",
          "type": "uint256"
        }
      ],
      "name": "changeRent",
      "outputs": [],
      "stateMutability": "nonpayable",
      "type": "function"
    },
    {
      "inputs": [
        {
          "internalType": "uint256",
          "name": "_id",
          "type": "uint256"
        }
      ],
      "name": "deletePlace",
      "outputs": [],
      "stateMutability": "nonpayable",
      "type": "function"
    },
    {
      "inputs": [],
      "name": "resetAll",
      "outputs": [],
      "stateMutability": "nonpayable",
      "type": "function"
    },
    {
      "inputs": [
        {
          "internalType": "uint256",
          "name": "_id",
          "type": "uint256"
        }
      ],
      "name": "rentAndPay",
      "outputs": [],
      "stateMutability": "payable",
      "type": "function",
      "payable": true
    },
    {
      "inputs": [
        {
          "internalType": "address payable",
          "name": "_creator",
          "type": "address"
        },
        {
          "internalType": "string",
          "name": "_image",
          "type": "string"
        },
        {
          "internalType": "string",
          "name": "_location",
          "type": "string"
        },
        {
          "internalType": "string",
          "name": "_state",
          "type": "string"
        },
        {
          "internalType": "uint256",
          "name": "_price",
          "type": "uint256"
        },
        {
          "internalType": "string",
          "name": "_description",
          "type": "string"
        }
      ],
      "name": "setPlace",
      "outputs": [],
      "stateMutability": "nonpayable",
      "type": "function"
    }
  ],
  "bytecode": "0x60806040526000805534801561001457600080fd5b506110db806100246000396000f3fe6080604052600436106100705760003560e01c8063d20a279c1161004e578063d20a279c146100f2578063dd7ef70614610139578063e103aef514610162578063fe3e31f51461017957610070565b806328cc1c3a146100755780637ae1dc171461009e5780638778658a146100c7575b600080fd5b34801561008157600080fd5b5061009c60048036038101906100979190610bf4565b610195565b005b3480156100aa57600080fd5b506100c560048036038101906100c09190610af7565b6101ea565b005b3480156100d357600080fd5b506100dc610460565b6040516100e99190610c96565b60405180910390f35b3480156100fe57600080fd5b5061011960048036038101906101149190610bf4565b610466565b6040516101309b9a99989796959493929190610cb1565b60405180910390f35b34801561014557600080fd5b50610160600480360381019061015b9190610bf4565b610747565b005b34801561016e57600080fd5b506101776107f7565b005b610193600480360381019061018e9190610bf4565b610906565b005b6001600082815260200190815260200160002060080160019054906101000a900460ff16156001600083815260200190815260200160002060080160016101000a81548160ff02191690831515021790555050565b6000808154809291906101fc90610f7c565b919050555060405180610160016040528060005481526020018773ffffffffffffffffffffffffffffffffffffffff1681526020018681526020018581526020018481526020018381526020016000151581526020018773ffffffffffffffffffffffffffffffffffffffff1681526020018281526020016000151581526020016000151581525060016000805481526020019081526020016000206000820151816000015560208201518160010160006101000a81548173ffffffffffffffffffffffffffffffffffffffff021916908373ffffffffffffffffffffffffffffffffffffffff16021790555060408201518160020190805190602001906103059291906109ba565b5060608201518160030190805190602001906103229291906109ba565b50608082015181600401908051906020019061033f9291906109ba565b5060a0820151816005015560c08201518160060160006101000a81548160ff02191690831515021790555060e08201518160060160016101000a81548173ffffffffffffffffffffffffffffffffffffffff021916908373ffffffffffffffffffffffffffffffffffffffff1602179055506101008201518160070190805190602001906103ce9291906109ba565b506101208201518160080160006101000a81548160ff0219169083151502179055506101408201518160080160016101000a81548160ff0219169083151502179055509050507f142832aae44582cfbca0a669273b0ee272c1b9c19117238918d418e868bfc2e160005487868686600060405161045096959493929190610d78565b60405180910390a1505050505050565b60005481565b60016020528060005260406000206000915090508060000154908060010160009054906101000a900473ffffffffffffffffffffffffffffffffffffffff16908060020180546104b590610f19565b80601f01602080910402602001604051908101604052809291908181526020018280546104e190610f19565b801561052e5780601f106105035761010080835404028352916020019161052e565b820191906000526020600020905b81548152906001019060200180831161051157829003601f168201915b50505050509080600301805461054390610f19565b80601f016020809104026020016040519081016040528092919081815260200182805461056f90610f19565b80156105bc5780601f10610591576101008083540402835291602001916105bc565b820191906000526020600020905b81548152906001019060200180831161059f57829003601f168201915b5050505050908060040180546105d190610f19565b80601f01602080910402602001604051908101604052809291908181526020018280546105fd90610f19565b801561064a5780601f1061061f5761010080835404028352916020019161064a565b820191906000526020600020905b81548152906001019060200180831161062d57829003601f168201915b5050505050908060050154908060060160009054906101000a900460ff16908060060160019054906101000a900473ffffffffffffffffffffffffffffffffffffffff169080600701805461069e90610f19565b80601f01602080910402602001604051908101604052809291908181526020018280546106ca90610f19565b80156107175780601f106106ec57610100808354040283529160200191610717565b820191906000526020600020905b8154815290600101906020018083116106fa57829003601f168201915b5050505050908060080160009054906101000a900460ff16908060080160019054906101000a900460ff1690508b565b6000339050806001600084815260200190815260200160002060060160016101000a81548173ffffffffffffffffffffffffffffffffffffffff021916908373ffffffffffffffffffffffffffffffffffffffff1602179055506001600083815260200190815260200160002060060160009054906101000a900460ff16156001600084815260200190815260200160002060060160006101000a81548160ff0219169083151502179055505050565b6000600190505b60005481116109035760006001600083815260200190815260200160002060060160006101000a81548160ff02191690831515021790555060006001600083815260200190815260200160002060080160006101000a81548160ff0219169083151502179055506001600082815260200190815260200160002060010160009054906101000a900473ffffffffffffffffffffffffffffffffffffffff166001600083815260200190815260200160002060060160016101000a81548173ffffffffffffffffffffffffffffffffffffffff021916908373ffffffffffffffffffffffffffffffffffffffff16021790555080806108fb90610f7c565b9150506107fe565b50565b60006001600083815260200190815260200160002060010160009054906101000a900473ffffffffffffffffffffffffffffffffffffffff1690508073ffffffffffffffffffffffffffffffffffffffff166108fc349081150290604051600060405180830381858888f19350505050158015610987573d6000803e3d6000fd5b50600180600084815260200190815260200160002060080160006101000a81548160ff0219169083151502179055505050565b8280546109c690610f19565b90600052602060002090601f0160209004810192826109e85760008555610a2f565b82601f10610a0157805160ff1916838001178555610a2f565b82800160010185558215610a2f579182015b82811115610a2e578251825591602001919060010190610a13565b5b509050610a3c9190610a40565b5090565b5b80821115610a59576000816000905550600101610a41565b5090565b6000610a70610a6b84610e0c565b610de7565b905082815260208101848484011115610a8c57610a8b611057565b5b610a97848285610ed7565b509392505050565b600081359050610aae81611077565b92915050565b600082601f830112610ac957610ac8611052565b5b8135610ad9848260208601610a5d565b91505092915050565b600081359050610af18161108e565b92915050565b60008060008060008060c08789031215610b1457610b13611061565b5b6000610b2289828a01610a9f565b965050602087013567ffffffffffffffff811115610b4357610b4261105c565b5b610b4f89828a01610ab4565b955050604087013567ffffffffffffffff811115610b7057610b6f61105c565b5b610b7c89828a01610ab4565b945050606087013567ffffffffffffffff811115610b9d57610b9c61105c565b5b610ba989828a01610ab4565b9350506080610bba89828a01610ae2565b92505060a087013567ffffffffffffffff811115610bdb57610bda61105c565b5b610be789828a01610ab4565b9150509295509295509295565b600060208284031215610c0a57610c09611061565b5b6000610c1884828501610ae2565b91505092915050565b610c2a81610ea1565b82525050565b610c3981610e59565b82525050565b610c4881610e6b565b82525050565b6000610c5982610e3d565b610c638185610e48565b9350610c73818560208601610ee6565b610c7c81611066565b840191505092915050565b610c9081610e97565b82525050565b6000602082019050610cab6000830184610c87565b92915050565b600061016082019050610cc7600083018e610c87565b610cd4602083018d610c30565b8181036040830152610ce6818c610c4e565b90508181036060830152610cfa818b610c4e565b90508181036080830152610d0e818a610c4e565b9050610d1d60a0830189610c87565b610d2a60c0830188610c3f565b610d3760e0830187610c30565b818103610100830152610d4a8186610c4e565b9050610d5a610120830185610c3f565b610d68610140830184610c3f565b9c9b505050505050505050505050565b600060c082019050610d8d6000830189610c87565b610d9a6020830188610c21565b8181036040830152610dac8187610c4e565b90508181036060830152610dc08186610c4e565b9050610dcf6080830185610c87565b610ddc60a0830184610c3f565b979650505050505050565b6000610df1610e02565b9050610dfd8282610f4b565b919050565b6000604051905090565b600067ffffffffffffffff821115610e2757610e26611023565b5b610e3082611066565b9050602081019050919050565b600081519050919050565b600082825260208201905092915050565b6000610e6482610e77565b9050919050565b60008115159050919050565b600073ffffffffffffffffffffffffffffffffffffffff82169050919050565b6000819050919050565b6000610eac82610eb3565b9050919050565b6000610ebe82610ec5565b9050919050565b6000610ed082610e77565b9050919050565b82818337600083830152505050565b60005b83811015610f04578082015181840152602081019050610ee9565b83811115610f13576000848401525b50505050565b60006002820490506001821680610f3157607f821691505b60208210811415610f4557610f44610ff4565b5b50919050565b610f5482611066565b810181811067ffffffffffffffff82111715610f7357610f72611023565b5b80604052505050565b6000610f8782610e97565b91507fffffffffffffffffffffffffffffffffffffffffffffffffffffffffffffffff821415610fba57610fb9610fc5565b5b600182019050919050565b7f4e487b7100000000000000000000000000000000000000000000000000000000600052601160045260246000fd5b7f4e487b7100000000000000000000000000000000000000000000000000000000600052602260045260246000fd5b7f4e487b7100000000000000000000000000000000000000000000000000000000600052604160045260246000fd5b600080fd5b600080fd5b600080fd5b600080fd5b6000601f19601f8301169050919050565b61108081610e59565b811461108b57600080fd5b50565b61109781610e97565b81146110a257600080fd5b5056fea264697066735822122077a5aa50c21b93414be7f634d6a2141ff7d15d15aff0caa5171047bcb3c7ff2064736f6c63430008070033",
  "immutableReferences": {},
  "source": "// SPDX-License-Identifier: MIT\npragma solidity >=0.4.21 <0.9.0;\n\ncontract SimpleStorage {\n    uint256 public placeCount = 0;\n\n    constructor() {}\n\n    struct Rent {\n        uint256 id;\n        address payable creator;\n        string image;\n        string location;\n        string state;\n        uint256 price;\n        bool rented;\n        address payable rentMan;\n        string description;\n        bool paid;\n        bool deletePlace;\n    }\n\n    mapping(uint256 => Rent) public allPlaces;\n\n    event placeCreated(\n        uint256 id,\n        address creator,\n        string location,\n        string state,\n        uint256 price,\n        bool rented\n    );\n\n    function changeRent(uint256 _id) public {\n        address _owner = msg.sender;\n        allPlaces[_id].rentMan = payable(_owner);\n        allPlaces[_id].rented = !allPlaces[_id].rented;\n    }\n\n    function deletePlace(uint256 _id) public {\n        allPlaces[_id].deletePlace = !allPlaces[_id].deletePlace;\n    }\n\n    function resetAll() public {\n        for (uint256 i = 1; i <= placeCount; i++) {\n            allPlaces[i].rented = false;\n            allPlaces[i].paid = false;\n            allPlaces[i].rentMan = allPlaces[i].creator;\n        }\n    }\n\n    function rentAndPay(uint256 _id) public payable {\n        address payable _seller = allPlaces[_id].creator;\n        // require(_id > 0 && _id < placeCount);\n        // require(msg.value >= allPlaces[_id].price);\n        // require(_seller != msg.sender);\n        payable(address(_seller)).transfer(msg.value);\n        allPlaces[_id].paid = true;\n    }\n\n    function setPlace(\n        address payable _creator,\n        string memory _image,\n        string memory _location,\n        string memory _state,\n        uint256 _price,\n        string memory _description\n    ) public {\n        placeCount++;\n        allPlaces[placeCount] = Rent(\n            placeCount,\n            _creator,\n            _image,\n            _location,\n            _state,\n            _price,\n            false,\n            _creator,\n            _description,\n            false,\n            false\n        );\n        emit placeCreated(\n            placeCount,\n            _creator,\n            _location,\n            _state,\n            _price,\n            false\n        );\n    }\n}\n",
  "sourcePath": "C:\\Users\\mihai\\OneDrive\\Desktop\\ETHERBOOK\\ether-project\\contracts\\SimpleStorage.sol",
  "compiler": {
    "name": "solc",
    "version": "0.8.7+commit.e28d00a7.Emscripten.clang"
  },
  "schemaVersion": "3.4.3",
  "updatedAt": "2021-09-10T14:39:30.068Z",
  "networkType": "ethereum",
  "devdoc": {
    "kind": "dev",
    "methods": {},
    "version": 1
  },
  "userdoc": {
    "kind": "user",
    "methods": {},
    "version": 1
  }
}